{
	"demo/requirekeyword.sol": {
		"requiredDemo": {
			"abi": [
				{
					"inputs": [],
					"name": "addNumber",
					"outputs": [
						{
							"internalType": "uint256",
							"name": "sum",
							"type": "uint256"
						},
						{
							"internalType": "uint256",
							"name": "product",
							"type": "uint256"
						}
					],
					"stateMutability": "view",
					"type": "function"
				},
				{
					"inputs": [],
					"name": "num1",
					"outputs": [
						{
							"internalType": "uint256",
							"name": "",
							"type": "uint256"
						}
					],
					"stateMutability": "view",
					"type": "function"
				},
				{
					"inputs": [],
					"name": "num2",
					"outputs": [
						{
							"internalType": "uint256",
							"name": "",
							"type": "uint256"
						}
					],
					"stateMutability": "view",
					"type": "function"
				}
			],
			"devdoc": {
				"kind": "dev",
				"methods": {},
				"version": 1
			},
			"evm": {
				"assembly": "    /* \"demo/requirekeyword.sol\":58:349  contract requiredDemo {... */\n  mstore(0x40, 0x80)\n    /* \"demo/requirekeyword.sol\":108:110  10 */\n  0x0a\n    /* \"demo/requirekeyword.sol\":86:110  uint256 public num1 = 10 */\n  0x00\n  sstore\n    /* \"demo/requirekeyword.sol\":138:139  6 */\n  0x06\n    /* \"demo/requirekeyword.sol\":116:139  uint256 public num2 = 6 */\n  0x01\n  sstore\n    /* \"demo/requirekeyword.sol\":58:349  contract requiredDemo {... */\n  callvalue\n  dup1\n  iszero\n  tag_1\n  jumpi\n  0x00\n  dup1\n  revert\ntag_1:\n  pop\n  dataSize(sub_0)\n  dup1\n  dataOffset(sub_0)\n  0x00\n  codecopy\n  0x00\n  return\nstop\n\nsub_0: assembly {\n        /* \"demo/requirekeyword.sol\":58:349  contract requiredDemo {... */\n      mstore(0x40, 0x80)\n      callvalue\n      dup1\n      iszero\n      tag_1\n      jumpi\n      0x00\n      dup1\n      revert\n    tag_1:\n      pop\n      jumpi(tag_2, lt(calldatasize, 0x04))\n      shr(0xe0, calldataload(0x00))\n      dup1\n      0x15d4266c\n      eq\n      tag_3\n      jumpi\n      dup1\n      0x3b9eac4b\n      eq\n      tag_4\n      jumpi\n      dup1\n      0xba65a523\n      eq\n      tag_5\n      jumpi\n    tag_2:\n      0x00\n      dup1\n      revert\n        /* \"demo/requirekeyword.sol\":116:139  uint256 public num2 = 6 */\n    tag_3:\n      tag_6\n      tag_7\n      jump\t// in\n    tag_6:\n      mload(0x40)\n      tag_8\n      swap2\n      swap1\n      tag_9\n      jump\t// in\n    tag_8:\n      mload(0x40)\n      dup1\n      swap2\n      sub\n      swap1\n      return\n        /* \"demo/requirekeyword.sol\":86:110  uint256 public num1 = 10 */\n    tag_4:\n      tag_10\n      tag_11\n      jump\t// in\n    tag_10:\n      mload(0x40)\n      tag_12\n      swap2\n      swap1\n      tag_9\n      jump\t// in\n    tag_12:\n      mload(0x40)\n      dup1\n      swap2\n      sub\n      swap1\n      return\n        /* \"demo/requirekeyword.sol\":146:347  function addNumber() public view returns (uint256 sum, uint256 product) {... */\n    tag_5:\n      tag_13\n      tag_14\n      jump\t// in\n    tag_13:\n      mload(0x40)\n      tag_15\n      swap3\n      swap2\n      swap1\n      tag_16\n      jump\t// in\n    tag_15:\n      mload(0x40)\n      dup1\n      swap2\n      sub\n      swap1\n      return\n        /* \"demo/requirekeyword.sol\":116:139  uint256 public num2 = 6 */\n    tag_7:\n      sload(0x01)\n      dup2\n      jump\t// out\n        /* \"demo/requirekeyword.sol\":86:110  uint256 public num1 = 10 */\n    tag_11:\n      sload(0x00)\n      dup2\n      jump\t// out\n        /* \"demo/requirekeyword.sol\":146:347  function addNumber() public view returns (uint256 sum, uint256 product) {... */\n    tag_14:\n        /* \"demo/requirekeyword.sol\":188:199  uint256 sum */\n      0x00\n        /* \"demo/requirekeyword.sol\":201:216  uint256 product */\n      dup1\n        /* \"demo/requirekeyword.sol\":243:247  num2 */\n      sload(0x01)\n        /* \"demo/requirekeyword.sol\":236:240  num1 */\n      sload(0x00)\n        /* \"demo/requirekeyword.sol\":236:247  num1 > num2 */\n      gt\n        /* \"demo/requirekeyword.sol\":228:282  require(num1 > num2, \"num1 must be greater than num2\") */\n      tag_18\n      jumpi\n      mload(0x40)\n      0x08c379a000000000000000000000000000000000000000000000000000000000\n      dup2\n      mstore\n      0x04\n      add\n      tag_19\n      swap1\n      tag_20\n      jump\t// in\n    tag_19:\n      mload(0x40)\n      dup1\n      swap2\n      sub\n      swap1\n      revert\n    tag_18:\n        /* \"demo/requirekeyword.sol\":305:309  num2 */\n      sload(0x01)\n        /* \"demo/requirekeyword.sol\":298:302  num2 */\n      sload(0x01)\n        /* \"demo/requirekeyword.sol\":298:309  num2 + num2 */\n      tag_21\n      swap2\n      swap1\n      tag_22\n      jump\t// in\n    tag_21:\n        /* \"demo/requirekeyword.sol\":292:309  sum = num2 + num2 */\n      swap2\n      pop\n        /* \"demo/requirekeyword.sol\":336:340  num2 */\n      sload(0x01)\n        /* \"demo/requirekeyword.sol\":329:333  num1 */\n      sload(0x00)\n        /* \"demo/requirekeyword.sol\":329:340  num1 * num2 */\n      tag_23\n      swap2\n      swap1\n      tag_24\n      jump\t// in\n    tag_23:\n        /* \"demo/requirekeyword.sol\":319:340  product = num1 * num2 */\n      swap1\n      pop\n        /* \"demo/requirekeyword.sol\":146:347  function addNumber() public view returns (uint256 sum, uint256 product) {... */\n      swap1\n      swap2\n      jump\t// out\n        /* \"#utility.yul\":7:84   */\n    tag_25:\n        /* \"#utility.yul\":44:51   */\n      0x00\n        /* \"#utility.yul\":73:78   */\n      dup2\n        /* \"#utility.yul\":62:78   */\n      swap1\n      pop\n        /* \"#utility.yul\":7:84   */\n      swap2\n      swap1\n      pop\n      jump\t// out\n        /* \"#utility.yul\":90:208   */\n    tag_26:\n        /* \"#utility.yul\":177:201   */\n      tag_34\n        /* \"#utility.yul\":195:200   */\n      dup2\n        /* \"#utility.yul\":177:201   */\n      tag_25\n      jump\t// in\n    tag_34:\n        /* \"#utility.yul\":172:175   */\n      dup3\n        /* \"#utility.yul\":165:202   */\n      mstore\n        /* \"#utility.yul\":90:208   */\n      pop\n      pop\n      jump\t// out\n        /* \"#utility.yul\":214:436   */\n    tag_9:\n        /* \"#utility.yul\":307:311   */\n      0x00\n        /* \"#utility.yul\":345:347   */\n      0x20\n        /* \"#utility.yul\":334:343   */\n      dup3\n        /* \"#utility.yul\":330:348   */\n      add\n        /* \"#utility.yul\":322:348   */\n      swap1\n      pop\n        /* \"#utility.yul\":358:429   */\n      tag_36\n        /* \"#utility.yul\":426:427   */\n      0x00\n        /* \"#utility.yul\":415:424   */\n      dup4\n        /* \"#utility.yul\":411:428   */\n      add\n        /* \"#utility.yul\":402:408   */\n      dup5\n        /* \"#utility.yul\":358:429   */\n      tag_26\n      jump\t// in\n    tag_36:\n        /* \"#utility.yul\":214:436   */\n      swap3\n      swap2\n      pop\n      pop\n      jump\t// out\n        /* \"#utility.yul\":442:774   */\n    tag_16:\n        /* \"#utility.yul\":563:567   */\n      0x00\n        /* \"#utility.yul\":601:603   */\n      0x40\n        /* \"#utility.yul\":590:599   */\n      dup3\n        /* \"#utility.yul\":586:604   */\n      add\n        /* \"#utility.yul\":578:604   */\n      swap1\n      pop\n        /* \"#utility.yul\":614:685   */\n      tag_38\n        /* \"#utility.yul\":682:683   */\n      0x00\n        /* \"#utility.yul\":671:680   */\n      dup4\n        /* \"#utility.yul\":667:684   */\n      add\n        /* \"#utility.yul\":658:664   */\n      dup6\n        /* \"#utility.yul\":614:685   */\n      tag_26\n      jump\t// in\n    tag_38:\n        /* \"#utility.yul\":695:767   */\n      tag_39\n        /* \"#utility.yul\":763:765   */\n      0x20\n        /* \"#utility.yul\":752:761   */\n      dup4\n        /* \"#utility.yul\":748:766   */\n      add\n        /* \"#utility.yul\":739:745   */\n      dup5\n        /* \"#utility.yul\":695:767   */\n      tag_26\n      jump\t// in\n    tag_39:\n        /* \"#utility.yul\":442:774   */\n      swap4\n      swap3\n      pop\n      pop\n      pop\n      jump\t// out\n        /* \"#utility.yul\":780:949   */\n    tag_27:\n        /* \"#utility.yul\":864:875   */\n      0x00\n        /* \"#utility.yul\":898:904   */\n      dup3\n        /* \"#utility.yul\":893:896   */\n      dup3\n        /* \"#utility.yul\":886:905   */\n      mstore\n        /* \"#utility.yul\":938:942   */\n      0x20\n        /* \"#utility.yul\":933:936   */\n      dup3\n        /* \"#utility.yul\":929:943   */\n      add\n        /* \"#utility.yul\":914:943   */\n      swap1\n      pop\n        /* \"#utility.yul\":780:949   */\n      swap3\n      swap2\n      pop\n      pop\n      jump\t// out\n        /* \"#utility.yul\":955:1135   */\n    tag_28:\n        /* \"#utility.yul\":1095:1127   */\n      0x6e756d31206d7573742062652067726561746572207468616e206e756d320000\n        /* \"#utility.yul\":1091:1092   */\n      0x00\n        /* \"#utility.yul\":1083:1089   */\n      dup3\n        /* \"#utility.yul\":1079:1093   */\n      add\n        /* \"#utility.yul\":1072:1128   */\n      mstore\n        /* \"#utility.yul\":955:1135   */\n      pop\n      jump\t// out\n        /* \"#utility.yul\":1141:1507   */\n    tag_29:\n        /* \"#utility.yul\":1283:1286   */\n      0x00\n        /* \"#utility.yul\":1304:1371   */\n      tag_43\n        /* \"#utility.yul\":1368:1370   */\n      0x1e\n        /* \"#utility.yul\":1363:1366   */\n      dup4\n        /* \"#utility.yul\":1304:1371   */\n      tag_27\n      jump\t// in\n    tag_43:\n        /* \"#utility.yul\":1297:1371   */\n      swap2\n      pop\n        /* \"#utility.yul\":1380:1473   */\n      tag_44\n        /* \"#utility.yul\":1469:1472   */\n      dup3\n        /* \"#utility.yul\":1380:1473   */\n      tag_28\n      jump\t// in\n    tag_44:\n        /* \"#utility.yul\":1498:1500   */\n      0x20\n        /* \"#utility.yul\":1493:1496   */\n      dup3\n        /* \"#utility.yul\":1489:1501   */\n      add\n        /* \"#utility.yul\":1482:1501   */\n      swap1\n      pop\n        /* \"#utility.yul\":1141:1507   */\n      swap2\n      swap1\n      pop\n      jump\t// out\n        /* \"#utility.yul\":1513:1932   */\n    tag_20:\n        /* \"#utility.yul\":1679:1683   */\n      0x00\n        /* \"#utility.yul\":1717:1719   */\n      0x20\n        /* \"#utility.yul\":1706:1715   */\n      dup3\n        /* \"#utility.yul\":1702:1720   */\n      add\n        /* \"#utility.yul\":1694:1720   */\n      swap1\n      pop\n        /* \"#utility.yul\":1766:1775   */\n      dup2\n        /* \"#utility.yul\":1760:1764   */\n      dup2\n        /* \"#utility.yul\":1756:1776   */\n      sub\n        /* \"#utility.yul\":1752:1753   */\n      0x00\n        /* \"#utility.yul\":1741:1750   */\n      dup4\n        /* \"#utility.yul\":1737:1754   */\n      add\n        /* \"#utility.yul\":1730:1777   */\n      mstore\n        /* \"#utility.yul\":1794:1925   */\n      tag_46\n        /* \"#utility.yul\":1920:1924   */\n      dup2\n        /* \"#utility.yul\":1794:1925   */\n      tag_29\n      jump\t// in\n    tag_46:\n        /* \"#utility.yul\":1786:1925   */\n      swap1\n      pop\n        /* \"#utility.yul\":1513:1932   */\n      swap2\n      swap1\n      pop\n      jump\t// out\n        /* \"#utility.yul\":1938:2118   */\n    tag_30:\n        /* \"#utility.yul\":1986:2063   */\n      0x4e487b7100000000000000000000000000000000000000000000000000000000\n        /* \"#utility.yul\":1983:1984   */\n      0x00\n        /* \"#utility.yul\":1976:2064   */\n      mstore\n        /* \"#utility.yul\":2083:2087   */\n      0x11\n        /* \"#utility.yul\":2080:2081   */\n      0x04\n        /* \"#utility.yul\":2073:2088   */\n      mstore\n        /* \"#utility.yul\":2107:2111   */\n      0x24\n        /* \"#utility.yul\":2104:2105   */\n      0x00\n        /* \"#utility.yul\":2097:2112   */\n      revert\n        /* \"#utility.yul\":2124:2315   */\n    tag_22:\n        /* \"#utility.yul\":2164:2167   */\n      0x00\n        /* \"#utility.yul\":2183:2203   */\n      tag_49\n        /* \"#utility.yul\":2201:2202   */\n      dup3\n        /* \"#utility.yul\":2183:2203   */\n      tag_25\n      jump\t// in\n    tag_49:\n        /* \"#utility.yul\":2178:2203   */\n      swap2\n      pop\n        /* \"#utility.yul\":2217:2237   */\n      tag_50\n        /* \"#utility.yul\":2235:2236   */\n      dup4\n        /* \"#utility.yul\":2217:2237   */\n      tag_25\n      jump\t// in\n    tag_50:\n        /* \"#utility.yul\":2212:2237   */\n      swap3\n      pop\n        /* \"#utility.yul\":2260:2261   */\n      dup3\n        /* \"#utility.yul\":2257:2258   */\n      dup3\n        /* \"#utility.yul\":2253:2262   */\n      add\n        /* \"#utility.yul\":2246:2262   */\n      swap1\n      pop\n        /* \"#utility.yul\":2281:2284   */\n      dup1\n        /* \"#utility.yul\":2278:2279   */\n      dup3\n        /* \"#utility.yul\":2275:2285   */\n      gt\n        /* \"#utility.yul\":2272:2308   */\n      iszero\n      tag_51\n      jumpi\n        /* \"#utility.yul\":2288:2306   */\n      tag_52\n      tag_30\n      jump\t// in\n    tag_52:\n        /* \"#utility.yul\":2272:2308   */\n    tag_51:\n        /* \"#utility.yul\":2124:2315   */\n      swap3\n      swap2\n      pop\n      pop\n      jump\t// out\n        /* \"#utility.yul\":2321:2731   */\n    tag_24:\n        /* \"#utility.yul\":2361:2368   */\n      0x00\n        /* \"#utility.yul\":2384:2404   */\n      tag_54\n        /* \"#utility.yul\":2402:2403   */\n      dup3\n        /* \"#utility.yul\":2384:2404   */\n      tag_25\n      jump\t// in\n    tag_54:\n        /* \"#utility.yul\":2379:2404   */\n      swap2\n      pop\n        /* \"#utility.yul\":2418:2438   */\n      tag_55\n        /* \"#utility.yul\":2436:2437   */\n      dup4\n        /* \"#utility.yul\":2418:2438   */\n      tag_25\n      jump\t// in\n    tag_55:\n        /* \"#utility.yul\":2413:2438   */\n      swap3\n      pop\n        /* \"#utility.yul\":2473:2474   */\n      dup3\n        /* \"#utility.yul\":2470:2471   */\n      dup3\n        /* \"#utility.yul\":2466:2475   */\n      mul\n        /* \"#utility.yul\":2495:2525   */\n      tag_56\n        /* \"#utility.yul\":2513:2524   */\n      dup2\n        /* \"#utility.yul\":2495:2525   */\n      tag_25\n      jump\t// in\n    tag_56:\n        /* \"#utility.yul\":2484:2525   */\n      swap2\n      pop\n        /* \"#utility.yul\":2674:2675   */\n      dup3\n        /* \"#utility.yul\":2665:2672   */\n      dup3\n        /* \"#utility.yul\":2661:2676   */\n      div\n        /* \"#utility.yul\":2658:2659   */\n      dup5\n        /* \"#utility.yul\":2655:2677   */\n      eq\n        /* \"#utility.yul\":2635:2636   */\n      dup4\n        /* \"#utility.yul\":2628:2637   */\n      iszero\n        /* \"#utility.yul\":2608:2691   */\n      or\n        /* \"#utility.yul\":2585:2724   */\n      tag_57\n      jumpi\n        /* \"#utility.yul\":2704:2722   */\n      tag_58\n      tag_30\n      jump\t// in\n    tag_58:\n        /* \"#utility.yul\":2585:2724   */\n    tag_57:\n        /* \"#utility.yul\":2369:2731   */\n      pop\n        /* \"#utility.yul\":2321:2731   */\n      swap3\n      swap2\n      pop\n      pop\n      jump\t// out\n\n    auxdata: 0xa26469706673582212208cfdee9e2c4c38c99d8a0674609a3b29b31f0a7328818dac57c355d7aec970e764736f6c634300081a0033\n}\n",
				"bytecode": {
					"linkReferences": {},
					"object": "6080604052600a5f5560066001553480156017575f80fd5b506102be806100255f395ff3fe608060405234801561000f575f80fd5b506004361061003f575f3560e01c806315d4266c146100435780633b9eac4b14610061578063ba65a5231461007f575b5f80fd5b61004b61009e565b604051610058919061012f565b60405180910390f35b6100696100a4565b604051610076919061012f565b60405180910390f35b6100876100a9565b604051610095929190610148565b60405180910390f35b60015481565b5f5481565b5f806001545f54116100f0576040517f08c379a00000000000000000000000000000000000000000000000000000000081526004016100e7906101c9565b60405180910390fd5b6001546001546101009190610214565b91506001545f546101119190610247565b90509091565b5f819050919050565b61012981610117565b82525050565b5f6020820190506101425f830184610120565b92915050565b5f60408201905061015b5f830185610120565b6101686020830184610120565b9392505050565b5f82825260208201905092915050565b7f6e756d31206d7573742062652067726561746572207468616e206e756d3200005f82015250565b5f6101b3601e8361016f565b91506101be8261017f565b602082019050919050565b5f6020820190508181035f8301526101e0816101a7565b9050919050565b7f4e487b71000000000000000000000000000000000000000000000000000000005f52601160045260245ffd5b5f61021e82610117565b915061022983610117565b9250828201905080821115610241576102406101e7565b5b92915050565b5f61025182610117565b915061025c83610117565b925082820261026a81610117565b91508282048414831517610281576102806101e7565b5b509291505056fea26469706673582212208cfdee9e2c4c38c99d8a0674609a3b29b31f0a7328818dac57c355d7aec970e764736f6c634300081a0033",
					"opcodes": "PUSH1 0x80 PUSH1 0x40 MSTORE PUSH1 0xA PUSH0 SSTORE PUSH1 0x6 PUSH1 0x1 SSTORE CALLVALUE DUP1 ISZERO PUSH1 0x17 JUMPI PUSH0 DUP1 REVERT JUMPDEST POP PUSH2 0x2BE DUP1 PUSH2 0x25 PUSH0 CODECOPY PUSH0 RETURN INVALID PUSH1 0x80 PUSH1 0x40 MSTORE CALLVALUE DUP1 ISZERO PUSH2 0xF JUMPI PUSH0 DUP1 REVERT JUMPDEST POP PUSH1 0x4 CALLDATASIZE LT PUSH2 0x3F JUMPI PUSH0 CALLDATALOAD PUSH1 0xE0 SHR DUP1 PUSH4 0x15D4266C EQ PUSH2 0x43 JUMPI DUP1 PUSH4 0x3B9EAC4B EQ PUSH2 0x61 JUMPI DUP1 PUSH4 0xBA65A523 EQ PUSH2 0x7F JUMPI JUMPDEST PUSH0 DUP1 REVERT JUMPDEST PUSH2 0x4B PUSH2 0x9E JUMP JUMPDEST PUSH1 0x40 MLOAD PUSH2 0x58 SWAP2 SWAP1 PUSH2 0x12F JUMP JUMPDEST PUSH1 0x40 MLOAD DUP1 SWAP2 SUB SWAP1 RETURN JUMPDEST PUSH2 0x69 PUSH2 0xA4 JUMP JUMPDEST PUSH1 0x40 MLOAD PUSH2 0x76 SWAP2 SWAP1 PUSH2 0x12F JUMP JUMPDEST PUSH1 0x40 MLOAD DUP1 SWAP2 SUB SWAP1 RETURN JUMPDEST PUSH2 0x87 PUSH2 0xA9 JUMP JUMPDEST PUSH1 0x40 MLOAD PUSH2 0x95 SWAP3 SWAP2 SWAP1 PUSH2 0x148 JUMP JUMPDEST PUSH1 0x40 MLOAD DUP1 SWAP2 SUB SWAP1 RETURN JUMPDEST PUSH1 0x1 SLOAD DUP2 JUMP JUMPDEST PUSH0 SLOAD DUP2 JUMP JUMPDEST PUSH0 DUP1 PUSH1 0x1 SLOAD PUSH0 SLOAD GT PUSH2 0xF0 JUMPI PUSH1 0x40 MLOAD PUSH32 0x8C379A000000000000000000000000000000000000000000000000000000000 DUP2 MSTORE PUSH1 0x4 ADD PUSH2 0xE7 SWAP1 PUSH2 0x1C9 JUMP JUMPDEST PUSH1 0x40 MLOAD DUP1 SWAP2 SUB SWAP1 REVERT JUMPDEST PUSH1 0x1 SLOAD PUSH1 0x1 SLOAD PUSH2 0x100 SWAP2 SWAP1 PUSH2 0x214 JUMP JUMPDEST SWAP2 POP PUSH1 0x1 SLOAD PUSH0 SLOAD PUSH2 0x111 SWAP2 SWAP1 PUSH2 0x247 JUMP JUMPDEST SWAP1 POP SWAP1 SWAP2 JUMP JUMPDEST PUSH0 DUP2 SWAP1 POP SWAP2 SWAP1 POP JUMP JUMPDEST PUSH2 0x129 DUP2 PUSH2 0x117 JUMP JUMPDEST DUP3 MSTORE POP POP JUMP JUMPDEST PUSH0 PUSH1 0x20 DUP3 ADD SWAP1 POP PUSH2 0x142 PUSH0 DUP4 ADD DUP5 PUSH2 0x120 JUMP JUMPDEST SWAP3 SWAP2 POP POP JUMP JUMPDEST PUSH0 PUSH1 0x40 DUP3 ADD SWAP1 POP PUSH2 0x15B PUSH0 DUP4 ADD DUP6 PUSH2 0x120 JUMP JUMPDEST PUSH2 0x168 PUSH1 0x20 DUP4 ADD DUP5 PUSH2 0x120 JUMP JUMPDEST SWAP4 SWAP3 POP POP POP JUMP JUMPDEST PUSH0 DUP3 DUP3 MSTORE PUSH1 0x20 DUP3 ADD SWAP1 POP SWAP3 SWAP2 POP POP JUMP JUMPDEST PUSH32 0x6E756D31206D7573742062652067726561746572207468616E206E756D320000 PUSH0 DUP3 ADD MSTORE POP JUMP JUMPDEST PUSH0 PUSH2 0x1B3 PUSH1 0x1E DUP4 PUSH2 0x16F JUMP JUMPDEST SWAP2 POP PUSH2 0x1BE DUP3 PUSH2 0x17F JUMP JUMPDEST PUSH1 0x20 DUP3 ADD SWAP1 POP SWAP2 SWAP1 POP JUMP JUMPDEST PUSH0 PUSH1 0x20 DUP3 ADD SWAP1 POP DUP2 DUP2 SUB PUSH0 DUP4 ADD MSTORE PUSH2 0x1E0 DUP2 PUSH2 0x1A7 JUMP JUMPDEST SWAP1 POP SWAP2 SWAP1 POP JUMP JUMPDEST PUSH32 0x4E487B7100000000000000000000000000000000000000000000000000000000 PUSH0 MSTORE PUSH1 0x11 PUSH1 0x4 MSTORE PUSH1 0x24 PUSH0 REVERT JUMPDEST PUSH0 PUSH2 0x21E DUP3 PUSH2 0x117 JUMP JUMPDEST SWAP2 POP PUSH2 0x229 DUP4 PUSH2 0x117 JUMP JUMPDEST SWAP3 POP DUP3 DUP3 ADD SWAP1 POP DUP1 DUP3 GT ISZERO PUSH2 0x241 JUMPI PUSH2 0x240 PUSH2 0x1E7 JUMP JUMPDEST JUMPDEST SWAP3 SWAP2 POP POP JUMP JUMPDEST PUSH0 PUSH2 0x251 DUP3 PUSH2 0x117 JUMP JUMPDEST SWAP2 POP PUSH2 0x25C DUP4 PUSH2 0x117 JUMP JUMPDEST SWAP3 POP DUP3 DUP3 MUL PUSH2 0x26A DUP2 PUSH2 0x117 JUMP JUMPDEST SWAP2 POP DUP3 DUP3 DIV DUP5 EQ DUP4 ISZERO OR PUSH2 0x281 JUMPI PUSH2 0x280 PUSH2 0x1E7 JUMP JUMPDEST JUMPDEST POP SWAP3 SWAP2 POP POP JUMP INVALID LOG2 PUSH5 0x6970667358 0x22 SLT KECCAK256 DUP13 REVERT 0xEE SWAP15 0x2C 0x4C CODESIZE 0xC9 SWAP14 DUP11 MOD PUSH21 0x609A3B29B31F0A7328818DAC57C355D7AEC970E764 PUSH20 0x6F6C634300081A00330000000000000000000000 "
				},
				"gasEstimates": {
					"creation": {
						"codeDepositCost": "140400",
						"executionCost": "44392",
						"totalCost": "184792"
					},
					"external": {
						"addNumber()": "infinite",
						"num1()": "2424",
						"num2()": "2403"
					}
				},
				"methodIdentifiers": {
					"addNumber()": "ba65a523",
					"num1()": "3b9eac4b",
					"num2()": "15d4266c"
				}
			},
			"storageLayout": {
				"storage": [
					{
						"astId": 4,
						"contract": "demo/requirekeyword.sol:requiredDemo",
						"label": "num1",
						"offset": 0,
						"slot": "0",
						"type": "t_uint256"
					},
					{
						"astId": 7,
						"contract": "demo/requirekeyword.sol:requiredDemo",
						"label": "num2",
						"offset": 0,
						"slot": "1",
						"type": "t_uint256"
					}
				],
				"types": {
					"t_uint256": {
						"encoding": "inplace",
						"label": "uint256",
						"numberOfBytes": "32"
					}
				}
			},
			"userdoc": {
				"kind": "user",
				"methods": {},
				"version": 1
			}
		}
	}
}